:1000000018308A00002800000A108A100A1182079E
:1000100041346A3475347334743465342034643450
:100020006134203448346F347234613400340A103F
:100030008A100A118207413467347534613472348E
:100040006434653400340A108A100A1182074F3470
:100050004B340A340D3400340A108A100A11820716
:1000600000340A108A100A1182075234453453347E
:100070004534543420344D346134783420344D3494
:1000800069346E343F3400340A108A100A11820732
:1000900031343D34533469346D34203432343D349A
:1000A0004E3461346F3400340A108A100A1182070A
:1000B0004D34613478342F344D3469346E34203407
:1000C0004C3469346D3470346F34733400340A1036
:1000D0008A100A118207463469346E3461346C34F4
:1000E000203432342E343034003470308400000830
:1000F000031989280130F800F701F70B7D28F80B68
:100100007C284A30F700F70B832800000000800BA2
:100110007A2800347D188E2808128F280816831636
:100120000812FD18972883128812992883168312C3
:100130008816831688127D19A12883120813A32814
:1001400083168312081783160813FD19AB28831230
:100150008813AD2883168312881783168813061018
:100160008312061400008316061083120610003452
:10017000F508031DBD288610BE2886148316861038
:100180002130F700F70BC228061083120610760EF6
:10019000FC000F30FC057C08FD008A2076080F3932
:1001A000FC00FD008A200D30F700F70BD528003445
:1001B000F5010130F600B8200230F000752000345F
:1001C000831608128312081283168812831288126B
:1001D0008316081383120813831688138312881357
:1001E000831686108312861083160610831206105B
:1001F0000F30F00075200330FD008A200530F0003C
:1002000075200330FD008A200530F0007520033092
:10021000FD008A200530F00075200230FD008A20A4
:100220000130F0007520F5012830F600B820F50106
:100230000C30F600B820D820F5010630F600B820C2
:100240008A150A162828F5014030F600B82001303A
:10025000F500F601B8200130F5001430F600B820A2
:100260000130F5000A30F600B8200130F500053005
:10027000F600B8200130F5000A30F600B820013051
:10028000F5001430F600B8200130F500F601B82072
:100290000130F500F601B820F5010130F600B82074
:1002A0008A150A162D288316051083120514831645
:1002B00085108312851000000000831685108312BC
:1002C000851400000000831605108312051000003D
:1002D00000008316851083128510000000000000C6
:1002E00000000000000083168510831285140000B2
:1002F0000000831605108312051400000000831609
:10030000851083128510000000000034831605104C
:10031000831205140130D70057080A3C031C9E299C
:100320008316851083128514000000008316851043
:100330008312851000000000D70A8C2953218A15EA
:100340000A1637288030DF00DF080319C4295F0848
:100350005E05003A0319B1298316051083120514AE
:10036000B5298316051083120510000000008316BE
:1003700085108312851400000000831685108312F7
:1003800085100310DF0CA42983160514000000005B
:1003900085108312851400000000831685108312D7
:1003A00085100034D90153210630DE00A2218030AF
:1003B000D800D8080319FE2958085705003A031930
:1003C000E6298316051083120514EA298316051001
:1003D0008312051000000000831685108312851417
:1003E000000000000000000000008316851083124A
:1003F0008510000000000310D80CD92983160510C1
:100400008312051483168510831285148316051430
:100410008312D9010518D90A831685108312851015
:100420005908F8008A150A163D280130F5007208AF
:10043000F600B8200034720B1E2A212A4030F30047
:10044000222AF30101307102F30773088038F400A7
:10045000F5017408F600B8200034580803178E0020
:100460000313570803178D0083168C130C14831283
:100470000C080313DA00D70A0319D80A580803171F
:100480008E000313570803178D0083168C130C146A
:1004900083120C080313D9005A08DC00DB01590849
:1004A000DB070318DC0A5B08F8005C08F9008A1512
:1004B0000A161B296608E8006708E90003178E0181
:1004C0000313650803178D000313690803178C00D5
:1004D00083168C130C15831203130B08F7008B1370
:1004E0008316031755308D00AA308D008C148C189C
:1004F000772A0C117708831203138B040C30F00059
:100500007520E50A03178E010313650803178D0094
:100510000313680803178C0083168C130C158312C1
:1005200003130B08F7008B138316031755308D0048
:10053000AA308D008C148C189B2A0C11770883121A
:1005400003138B040C30F00075200034D8015808D8
:10055000033C031CC02A5930580784005808570729
:10056000DE0003178E0103135E0803178D00831648
:100570008C130C1483120C0880000313D80AA72ACA
:100580005908F7005A08F8005B08F9005C08FA00FF
:1005900000340830F3008316881083128810F308A3
:1005A0000319E52A0310F20D031CDA2A8316081436
:1005B000DF2A83128316081083120810831688140A
:1005C000F303881083128810CF2A8316081483122D
:1005D0000034831608148814081470108312081845
:1005E0007014831688108312881000307018013040
:1005F000F80000346C08073C0318002B0730EC00AF
:100600008316081400008814000083120810831653
:1006100008100000831288108316881003108312BC
:100620006C0DA038F000F200C922E9226E08F0003B
:10063000F1016E08F200C922E9226D08F200C92218
:10064000E9228316081400008814000083120810A1
:100650008316081000008312881083168810031078
:1006600083126C0DA138F000F200C922E922083093
:10067000F100F00183168810831288108316081485
:10068000F1080319532B88140814831208184A2BF5
:1006900003104B2B0314F00DF10383168810831203
:1006A00088108316402B7008F80078088312EF003A
:1006B0008316081488148810831288108316081073
:1006C0000000881483128818672B8316622B0000A1
:1006D00000000000000083160814000083126F0859
:1006E000F80000347308F801720203187A2B7208BC
:1006F000F700862BF7010830F400F20DF70D7308B0
:1007000077020318F700F80DF40B7D2B00347808FE
:100710006608F2006430F30072237708E600780878
:100720003030031D9A2B6718A12BE719A12B671AEC
:1007300020309C2BE7116712F80778080C1E9E2BBF
:1007400099006608F2000A30F30072237708E60089
:1007500078083030031DB02BE719B52B671A20300D
:10076000F80778080C1EB22B99003030E6076608AF
:100770000C1EB82B990000340408EE00680EF03807
:10078000EA00EA07E23EEB00323EED0068080F396E
:10079000EB07EB07ED07E93EEC00EC07EC07670E13
:1007A0000F39EC07ED07EC0DED0DED09ED0D6708C8
:1007B0000F39ED07EA0D0730E9000A30ED07EC03C9
:1007C000031CDE2BEC07EB03031CE22BEB07EA0315
:1007D000031CE62BEA07E903031CEA2B69308400BB
:1007E00007306E0584076D30040203190B2C0008D6
:1007F000F700031D012C6E1A092CEE19032C203072
:10080000042C0830EE003030F70777080C1E062C59
:100810009900840AF32B0008F7003030F7077708B7
:100820000C1E102C99008A150A12A9280830F8000D
:10083000000000008810831688100000A00D8312AD
:100840000810031C262C83160814831203182B2C63
:100850008316081083128316881483128818322C8A
:1008600083162D2CF80B182C000088108316881086
:100870000000081400000000881483128818422C1D
:1008800083163D2CF8010000081878148810831690
:100890008810831208108316081083120034831600
:1008A0000814000088140000831208108316081032
:1008B00000008312881083168810A030A0008312D5
:1008C000162478087818662C6910672C691483162A
:1008D00008100000881483128818702C83166B2C63
:1008E0000000000000000000831608140000003023
:1008F0008312691C0130F800F80803194F2C831685
:1009000008140000881400008312081083160810D1
:100910000000831288108316881003108312650D5F
:10092000A038E9008316A000831216246708E900A6
:10093000EA0167088316A00083121624660883164E
:10094000A0008312162468088316A00083121624C0
:10095000831608100000881483128818B12C83169F
:10096000AC2C0000000000000000831608140000FA
:100970000A30F0008312752000346608680680395A
:10098000EA00E61FC82CE509E609E50A0319E60AAC
:10099000E81FCF2CE709E809E70A0319E80AF8017C
:1009A000F901F701FA016808031DD92C670803193A
:1009B000F32C1030E9000310E50DE60DF70DFA0DEC
:1009C00068087A02031DE62C67087702031CEF2CE7
:1009D0006708F702031CFA036808FA020314F80D0B
:1009E000F90DE90BDB2C0000EA1FFB2CF809F909D3
:1009F000F80A0319F90A8A150A12FF28831647080C
:100A0000C9004608CA004808003C0318132D4A08CC
:100A1000840049080002031D102D4A08F800152D16
:100A2000CA0AC803032D0030F800831200341030C6
:100A3000F700FA018316CA01C70CC60C031C262D49
:100A40004808FA070318CA0A4908CA07CA0CFA0C68
:100A5000F90CF80CF70B1C2D83120034EB01EC01A0
:100A600030308316A0003130A1003230A200333084
:100A7000A3003430A4003530A5003630A60037304E
:100A8000A7003830A8003930A9006130AA006230D0
:100A9000AB006330AC006430AD006530AE00663052
:100AA000AF006730B0006830B1006930B2006A3022
:100AB000B3006B30B4006C30B5006D30B6006E30F2
:100AC000B7006F30B8007030B9007130BA007330C1
:100AD000BB007430BC007530BD007630BE0077308E
:100AE000BF007830C0007930C1007A30C200C30145
:100AF00083126508E800680884000008203C031D94
:100B0000832DE80A7B2D6808840000082D3C03191A
:100B10008F2D6808840000082B3C031D942D680865
:100B2000E80A84000008952D2B30ED00E71BA12D6D
:100B3000670B9B2DA12DE71BAD2D6708243C0318E7
:100B4000AD2DE6080319A82D66088400650880000D
:100B50000030F800F900A72E132EE7080319EA2D3C
:100B60006708103C031DCA2D680884000008303C4B
:100B7000031DCA2D0130680784000008783C031962
:100B8000C82D0130680784000008583C031DCA2D99
:100B90000230E8076708083C031DD62D680884006A
:100BA0000008303C031DD62D0130E8076708023CE1
:100BB000031DE92D680884000008303C031DE92D61
:100BC0000130680784000008623C031DE92D0230F3
:100BD000E807132E680884000008303C0319F32D41
:100BE0000A30E700132E0130680784000008783CC3
:100BF0000319012E0130680784000008583C031DCA
:100C0000062E1030E7000230E807132E0130680787
:100C100084000008623C031D112E0230E700E80743
:100C2000132E0830E7006808E9006808840000080F
:100C3000303C031D1D2EE80A152E680884000008AC
:100C4000EE00403C03182B2E6E085A3C031C2B2E42
:100C50006E0820382C2E6E08EF00A0308316C600D8
:100C600083126E088316C700831267088316C800B4
:100C70008312FE247808EA00EA080319842EFA0198
:100C80006708F700E71BFA03EE007A08EF006C082C
:100C90008316C70083126B088316C60083127A0876
:100CA0008316C90083126E088316C80083121725A5
:100CB000A0306A02FA017807EB007908EC0003180B
:100CC000EC0A7A08EC07E80A680884000008EE00DD
:100CD000403C0318722E6E085A3C031C722E6E089C
:100CE0002038732E6E08EF00A0308316C6008312E2
:100CF0006E088316C700831267088316C800831224
:100D0000FE247808EA003C2E68086902031D932E31
:100D1000E60803198F2E66088400650880000030FD
:100D2000F800F900A72E6D082D3C031D9C2EEB0941
:100D3000EC09EB0A0319EC0AE6080319A32E66086E
:100D40008400680880006B08F8006C08F900003423
:100D50000408EC00E61FB52E2D30F20015228403A6
:100D6000E509E609E50A0319E60A660EF038E80027
:100D7000E807E23EE900323EEB0066080F39E9077A
:100D8000E907EB07E93EEA00EA07EA07650E0F39D3
:100D9000EA07EB07EA0DEB0DEB09EB0D65080F39E0
:100DA000EB07E80D0730E7000A30EB07EA03031C06
:100DB000D52EEA07E903031CD92EE907E803031C33
:100DC000DD2EE807E703031CE12E673084000730BF
:100DD0006C0584076B30040203190A2F0008F70022
:100DE000031DF82E6C1A082FEC19FA2E2030FB2E5A
:100DF0000830EC003030F707E6010408E50077081A
:100E0000E7007708F2001522650884006708F700FC
:100E1000840AEA2E0008F7003030F7077708F2005E
:100E20001522003408308316A0007708A1000814AA
:100E300000008814831288181F2F83161A2F081891
:100E40000314081C0310F80D000083168810831289
:100E500088108316A00B172F0814000083120810A7
:100E600083162108031D08100000881483128818B7
:100E70003B2F8316362F0000881083168810000041
:100E80008312081083160810831200347E0883161C
:100E9000A0000310A00C7830A005200CF700F70C80
:100EA0003F30F70577082007A1007E080F3921079A
:100EB000F800831200348316081400008814000020
:100EC00083120810831608100000831288108316FE
:100ED0008810A230A000831216247D088316A0007B
:100EE000831216247E088316A0008312162483160C
:100EF00008100000881483128818802F83167B2F17
:100F00000000000000000000831608140000831297
:100F1000003478087008F2006430F3007223770818
:100F2000F00078083030031D9C2F7118A22FF119A2
:100F3000A22F711A20309E2FF1117112F807780834
:100F4000F20015227008F2000A30F30072237708CD
:100F5000F00078083030031DB12FF119B52F711A48
:100F60002030F8077808F20015223030F0077008BA
:100F7000F200152200348E30F7006E08F8006D087C
:100F8000F900FA01F808031DCF2F7908F800F901DC
:100F90000830F702F808031DCF2FF701D72F0310F1
:100FA000F81BD62FF90DF80DF703CF2FF81300001B
:100FB00000348E30F7005D08F7025E08F9005F0824
:100FC000F800F917F7080319F02F0310F908031DAB
:100FD000EC2FF8080319F02FF90CF80CF70BE52F9C
:100FE000DE1FF72FF809F909F80A0319F90A0000BA
:020FF0000034CB
:10100000D701D80122086C3C031DBE28D801D701A6
:10101000D81F0D28A11F19280F28A11BBE2858086A
:101020002102031CBE28031D19282008570203189B
:10103000BE28EC015808EE005708ED008A11FA228C
:101040008A157808E500E6000130E7008A11872359
:101050008A152F300C1E2A289900D70A0319D80A9E
:10106000EC015808EE005708ED008A11FA228A15A3
:101070007808E500E6000130E7008A1187238A1529
:1010800020300C1E41289900D70A0319D80AEC0118
:101090005808EE005708ED008A11FA228A157808E0
:1010A000E500E6000130E7008A1187238A15203029
:1010B0000C1E58289900D70A0319D80AEC015808C1
:1010C000EE005708ED008A11FA228A157808E5002B
:1010D000E600E7018A1187238A1520300C1E6E284E
:1010E0009900D70A0319D80AE5015808E7005708FC
:1010F000E6006508EC006708EE006608ED008A115E
:10110000FA228A157808E900E60A0319E70A650851
:10111000EC006708EE006608ED008A11FA228A15D5
:101120007808E8006908EB00EA016808EA07031894
:10113000EB0A6A08F8006B08F9007908E6007808FD
:10114000E500103084006608E8006508E7008A11B1
:10115000BC2B8A150A300C1EAB2899000D300C1ED2
:10116000AF289900D70A0319D80AD70A0319D80A51
:101170000230F0008A1175208A1508282208723C76
:10118000031D2F290130E1008A11D8208A1504306F
:10119000E5002030F2008A1115228A15E50BC928D6
:1011A000E60166088A1117208A15E60AF700F200A0
:1011B0008A1115228A1507306602031DD128D8012D
:1011C000D701D81BED2858081F3C031C1429031D08
:1011D000ED285708FE3C031C1429E5015808E700D8
:1011E0005708E600E8018A114F248A155808E600DE
:1011F0005708E5000230E800E7018A11BD2C8A1586
:1012000077087A04031D10296108F1000230F2000A
:101210008A111B228A15F2018A1115228A15E10A08
:10122000D70A0319D80AE1288A11D8208A15E501BE
:1012300065088A1123208A15E50AF70077080C1E35
:101240001F29990004306502031D18291130E5009B
:10125000E701E6018A115A228A15A101A00122089C
:10126000433C031D562A2508E3002608E4006330AA
:10127000E5006230E6000A30E7008A112E258A1563
:101280007908DA007808D9002808E3002908E40082
:101290006330E5006230E6000A30E7008A112E254F
:1012A0008A157908DC007808DB002B08E3002C089D
:1012B000E4006330E5006230E6000A30E7008A119E
:1012C0002E258A157908DE007808DD002E08E30057
:1012D0002F08E4006330E5006230E6000A30E700E2
:1012E0008A112E258A157908E0007808DF005A084F
:1012F0008316C700831259088316C600C90103303C
:10130000C8008A11831217258A157808143ED70061
:101310007908D8000318D80A580803178E00031359
:10132000570803178D0003135B0803178C008316FF
:101330008C130C15831203130B08F7008B13831601
:10134000031755308D00AA308D008C148C18A629F7
:101350000C117708831203138B04D70A0319D80AD8
:10136000580803178E000313570803178D00031343
:101370005D0803178C0083168C130C15831203135E
:101380000B08F7008B138316031755308D00AA3016
:101390008D008C148C18CA290C1177088312031342
:1013A0008B04D70A0319D80A580803178E000313B1
:1013B000570803178D0003135F0803178C0083166B
:1013C0008C130C15831203130B08F7008B13831671
:1013D000031755308D00AA308D008C148C18EE291F
:1013E0000C117708831203138B0422308400003021
:1013F00000040319062A0408E5000008F2008A1117
:1014000015228A1565088400840AF7290230F10044
:101410000130F2008A111B228A15033084005A0819
:10142000E6005908E5008A11A8268A152030F20046
:101430008A1115228A15033084005C08E6005B08D7
:10144000E5008A11A8268A152030F2008A1115229B
:101450008A15033084005E08E6005D08E5008A1105
:10146000A8268A152C30F2008A1115228A15203000
:10147000F2008A1115228A15033084006008E60004
:101480005F08E5008A11A8268A15E501E6012230E9
:1014900084006508840766088A112C208A1580005C
:1014A00000380319562AE60AE50A472A8A150A1659
:1014B0008529831608140000881400008312081080
:1014C0008316081000008312881083168810A2303B
:1014D000A0008A11831216248A1502308316A000F8
:1014E0008A11831216248A158316081400008814A2
:1014F0000000831208108316081000008312881061
:1015000083168810A330A0008A11831216248A152E
:101510000130F7008A1112278A157808F20001308D
:10152000F7008A1112278A157808F3000130F700B6
:101530008A1112278A157808F4000130F7008A1101
:1015400012278A157808F500F7018A1112278A15E3
:101550007808F60083160810000088148312881893
:10156000B32A8316AE2A0000000000000000831694
:101570000814000083126F08FC007208FE008A1134
:1015800046278A157C0884007808800001306F07A0
:10159000FC007308FE008A1146278A157C08840027
:1015A0007808800002306F07FC0074083F39FD00A6
:1015B000FE008A1146278A157C088400780880007E
:1015C00003306F07FC0075083F39FD00FE008A11EB
:1015D00046278A157C0884007808800004306F074D
:1015E000FC0076081F39FD00FE008A1146278A1587
:1015F0007C0884007808800006306F078400760E2F
:10160000F700F70C0730F70577088000750EF0003B
:10161000F00CF00C0330F0051030FC0083160814B9
:1016200000008814000083120810831608100000C0
:101630008312881083168810A230A0008A118312AA
:1016400016248A157C088316A0008A11831216249A
:101650008A158316081400008814000083120810ED
:101660008316081000008312881083168810A33098
:10167000A0008A11831216248A15F7018A111227F5
:101680008A157808FD00831608100000881483125C
:1016900088184C2B8316472B000000000000000028
:1016A0008316081400007D08F8007808F10071081E
:1016B0000339700203195E2BF10A572B0530831290
:1016C0006F078400710880001030FD007108FE0073
:1016D0008A115B278A1500346208EB006308EC006E
:1016E000ED01DF1F752B6B17EC03DF175E08031985
:1016F000182C7F305E02031CD42BDE00EE01043078
:10170000EF000310E10DE00DDF0DED0DEF0B812B70
:1017100004305E020318942B03305E02031D0E2C6E
:101720000A306D02031C0E2C0330DE02EE0AE9249F
:101730000310E10DE00DDF0DED0DD2240230EF00BE
:101740000310ED0CDF0CE00CE10CEF0BA02BE924F7
:101750000430EF000310E20CE30CE40CE50CEF0B9B
:10176000AA2BD224E9246408E5006308E400620897
:10177000E300E201D224E9246308E5006208E40002
:10178000E201E301D224ED19882BDE08031DCD2BE5
:10179000E10AE00ADF0AED0A0E2C0310E10DE00D6C
:1017A000DF0DED0DDE03882BDE09DE0A7F30DE075C
:1017B000EE010430EF000310E10DE00DDF0DED0D43
:1017C000EF0BDB2B0430DE0705305E02031C1A2C06
:1017D000E9240310E10DE00DDF0DED0D0310E10D27
:1017E000E00DDF0DED0DD2240310E10DE00DDF0D56
:1017F000ED0DEE0A0330EF000310ED0CDF0CE00CF2
:10180000E10CEF0BFC2B0330DE026D1EE42B03100A
:10181000ED0CDF0CE00CE10CDE03E42BDE09DE0A4C
:101820000330DE076E0AEC02031CEC0101301B2CB6
:1018300002301B2C0030E700EB1B2A2CEC1B2A2C5F
:10184000EC0803192A2C2030F2008A1115228A157F
:10185000EC0B232C6B1F312C2D30F2008A1115223A
:101860008A15EB1F3F2CEC1B3F2CEC0803193F2C77
:101870003030F2008A1115228A15EC0B352CEB134F
:101880006B13671C4A2C6E08E7006E08E9006B0AB0
:10189000E907762CE71C4E2C6B0AEE00EB080319C7
:1018A000D02C2E30F2008A1115228A156E08EA001B
:1018B000EA036B086A02031C5F2C6B08EA00EA0863
:1018C0000319692C3030F2008A1115228A15EA0BAF
:1018D000622C6E08EF006B0AEF020318F22CDE0395
:1018E0006B0AE9006E08E9026908E7006D08E60086
:1018F0005E080319802CE8000310E60CE80B7C2C32
:1019000069080319D02C30306607F2008A111522BD
:101910008A156708031D942CEB080319D02C2E3070
:10192000F2008A1115228A15E703E9030319D02C66
:101930005E080319A02CE8000310E60DE80B9C2CB0
:101940006608ED026D08E2005F08E3006008E4004D
:101950006108E5000310E10DE00DDF0DED0D031052
:10196000E10DE00DDF0DED0D6508E107031CBD2C59
:10197000E00FBD2CDF0FBD2CED0A6408E007031C4F
:10198000C42CDF0FC42CED0A6308DF070318ED0A2F
:101990006208ED070310E10DE00DDF0DED0D762C73
:1019A0000000F22C6508E107031CDB2CE00FDB2CA8
:1019B000DF0FDB2CED0A6408E007031CE22CDF0FCD
:1019C000E22CED0A6308DF070318ED0A6208ED0751
:1019D00000346D08E2005F08E3006008E40061087D
:1019E000E500003400000034DF01E0010130DE00DA
:1019F0005E08083C031C132D831685108312851482
:101A0000000000008316051483120518092D031029
:101A10000A2D0314DF0D8316851083128510000034
:101A20000000DE0AF82C8316051083120510000052
:101A300000008316851083128514000000008316B1
:101A400085108312851083160514000000000130F4
:101A50008312DE005E08083C031C452D83168510AA
:101A600083128514000000008316051483120518E4
:101A70003B2D03103C2D0314E00D831685108312BB
:101A8000851000000000DE0A2A2D8316051083123F
:101A900005140000000083168510831285140000D1
:101AA000000083168510831285108316051400002C
:101AB000000083125F08E2006008E1006108F8009E
:101AC0006208F90000346D080319ED2D8316A0009B
:101AD0007108031D6D2D8312ED2DA00703187B2DBA
:101AE0007F30A0020318762D8312ED2D031D7A2D71
:101AF0008312ED2D812D8130A007031C812D8312CF
:101B0000ED2D2008F700F801F901FA0183126E08A3
:101B10008316A400A41783126F088316A30070080D
:101B2000A2001830A000A101221CB32D7408FA07EE
:101B3000031CA02DF90A031DA02DF80A0319A117F3
:101B40007308F907031CA72DF80A0319A1177208D7
:101B50008312EF00EF176F08F807031CB22D8316EE
:101B6000A11783128316A10DF80CF90CFA0CA40C22
:101B7000A30CA20C0310A00B932D0130F707031C3C
:101B8000C32D8312ED2DF81BCD2DA40DFA0DF90DEB
:101B9000F80DF70BCD2D8312ED2DA41FE02DFA0AC1
:101BA000031DE02DF90A031DE02DF80A031DE02DA9
:101BB000F80CF90CFA0CF70A031DE02D8312ED2D39
:101BC00083126E088316A1007208A106A11FEA2DD8
:101BD000F817F22DF813F22D8312F701F801F9012D
:101BE000FA01831600008312003480308318EE0659
:101BF0008316A201A30183126A088316A10083122F
:101C00006E088316A106831269080319082F83162C
:101C1000A000F70083126D080319152F8316A00288
:101C20000319A32E031C562E83126E088316A600DA
:101C3000A61783126F088316A5007008A400A301DD
:101C40000310A60CA50CA40CA30CA00B1F2EA11F07
:101C50002C2E22142E2F2210201022166C308400DD
:101C6000432F2212A11B3E2E201C492EA60CA50C90
:101C7000A40CA30CF70A0319292F492EA61B4C2EDE
:101C80000310A30DA40DA50DA60DF7030319292F0D
:101C90003E2E2217C82E221383126A088316A10033
:101CA000A11F542EA617222FA613222F83126D08D0
:101CB0008316A000F700831269088316A00283121E
:101CC0006A088316A600A61783126B088316A50060
:101CD00083126C088316A400A3010310A60CA50CA4
:101CE000A40CA30CA00B6C2EA11F792EA2142E2FD6
:101CF000A2102010A21670308400432FA212A11B44
:101D00008B2E201C962EA60CA50CA40CA30CF70A57
:101D10000319292F962EA61B992E0310A30DA40D8F
:101D2000A50DA60DF7030319292F8B2EA217C82E78
:101D3000A21383126E088316A100A11FA12EA6175D
:101D4000222FA613222F83126E088316A600A61731
:101D500083126F088316A5007008A400A11FB42E7B
:101D6000A61322152E2F2211A30120106C308400FF
:101D7000432FA11BDE2E83126A088316A100201CAC
:101D8000C82EA60CA50CA40CA30CF70A0319292F26
:101D9000A31FD92EA40A031DD92EA50A031DD92ECF
:101DA000A60A031DD92EA60CA50CA40CF70A03192C
:101DB000292F221B4B2EA21B982E012F8030A60606
:101DC000A61FE82E2E2F83126E088316A100F72E71
:101DD00083126A088316A100A608031DF72EA50822
:101DE000031DF72EA408031DF72EF701222FA61BB3
:101DF000012F0310A30DA40DA50DA60DF70BF72EB3
:101E0000292FA11F052FA617222FA613222F8312D9
:101E10006D08F7006E088316A60083126F088316FC
:101E2000A5007008A400222F83126908F7006A0831
:101E30008316A60083126B088316A50083126C0814
:101E40008316A4002608F8002508F9002408FA00E3
:101E5000612FF701F801F901FA01612FA301A4092B
:101E6000A509A609A309A30A031D3C2FA40A031D63
:101E70003C2FA50A0319A60A22182B2EA218782E89
:101E80002219B32EE32E0008A407031C4D2FA50A28
:101E9000031D4D2FA60A0319201484030008A5076B
:101EA000031C552FA60A0319201484030008801F61
:101EB000803AA60703182014221A312EA21A7E2E69
:101EC000B92E0000831200348A1153218A15033081
:101ED000DE008A11A2218A158316051483120518C3
:101EE0006C2F00000000F4247908D9007808D8008D
:101EF0005908DF005808DE005F08EE005E08ED00BC
:101F00008A11BB278A150A30F000D730EF00233042
:101F1000EE007830ED007A08F4007908F3007808D4
:101F2000F2007708F10063257A08E5007908E400FB
:101F30007808E3007708E20083146508EC00640881
:101F4000EB006308EA006208E900F001EF012030CD
:101F5000EE008430ED00F5257A08E5007908E4000C
:101F60007808E3007708E2006208F7006308F800E9
:101F70006408F9006508FA007A08DD007908DC00D9
:101F80007808DB007708DA005A08F7005B08F800E9
:101F90005C08F9005D08FA008A150A161C2ADC01A3
:101FA0005C08033C031CFE2F5C085707DD0058301B
:101FB0005C0784000008DE0003178E0103135D0830
:101FC00003178D0003135E0803178C0083168C1310
:101FD0000C15831203130B08F7008B1383160317DA
:101FE00055308D00AA308D008C148C18F52F0C11F3
:0E1FF0007708831203138B04DC0AD02F003411
:102000000A1253210A160530DE000A12A2210A160E
:1020100083160514831205180828000000000A1210
:102020008A15F4240A168A117908D8007808D7008E
:102030005808DE005708DD005E08EE005D08ED0080
:102040000A12BB270A167708E9007808EA0079081F
:10205000EB007A08EC005E08EE005D08ED000A1265
:10206000BB270A166C08F0006B08EF006A08EE0048
:102070006908ED007A08F4007908F3007808F200A6
:102080007708F1000A128A1563250A168A117A0860
:10209000E4007908E3007808E2007708E1006408CA
:1020A000F0006308EF006208EE006108ED00A23066
:1020B000F400E730F300BB30F2006C30F1000A129C
:1020C0008A1563250A168A117A08E4007908E30064
:1020D0007808E2007708E1005E08EE005D08ED0098
:1020E0000A12BB270A167708E9007808EA0079087F
:1020F000EB007A08EC00F0007908EF007808EE00B9
:102100007708ED005430F400E330F3002530F2009E
:102110007A30F1000A128A1563250A168A117A08A4
:10212000E8007908E7007808E6007708E500831002
:102130006408EC006308EB006208EA006108E9004B
:102140006808F0006708EF006608EE006508ED001B
:102150000A128A15F5250A168A117A08E400790808
:10216000E3007808E2007708E10083146408EC00DB
:102170006308EB006208EA006108E900F001EF0182
:10218000EE018130ED000A128A15F5250A168A1132
:102190007A08E4007908E3007808E2007708E100B3
:1021A0006108F7006208F8006308F9006408FA00A3
:1021B0007A08DC007908DB007808DA007708D900B3
:1021C0005C08E0005B08DF005A08DE005908DD000B
:1021D0000A12D9270A1679088A150A16272A5808D2
:1021E000DF005C08DF06DF1FFA2803110310D81B8D
:1021F00003142D295808DF005B08E0005708E002AF
:1022000003190829DF1F2D290308013A83002D290E
:102210005C08E0005808E00203191429DF1F2D298B
:102220000308013A83002D295D08E0005908E00207
:1022300003192029DF1F2D290308013A83002D29C6
:102240005E08E0005A08E00203192C29DF1F2D293F
:102250000308013A83002D29031000345A08DC00DA
:102260005B08DD005708E5005908E7005808E6005C
:102270005D08E8000A124F240A160C30F0000A121A
:1022800075200A16D80A0319D90A5708E500590813
:10229000E7005808E6005C08E8000A124F240A1616
:1022A0000C30F0000A1275200A168A150A16F12C55
:1022B000F701F801570803105818F707F70CF80C46
:1022C000D818F707F70CF80C5819F707F70CF80CA3
:1022D000D819F707F70CF80C581AF707F70CF80C91
:1022E000D81AF707F70CF80C581BF707F70CF80C7F
:1022F000D81BF707F70CF80C0034FE017D08093CE9
:10230000031887290A30FD021030FE078A297D084C
:10231000FE078B297E297E08F80000345710D8016B
:102320000A12D8200A16EF016F080A1204200A16B2
:10233000EF0AF700F2000A1215220A160E306F0299
:10234000031D94290430EF00FA30F0000A127520C2
:102350000A16EF0BA4296830EF000A128A155922D9
:102360000A168A110230F100F2000A121B220A1624
:102370006A08F0000130F1000A1289270A163A3083
:10238000F2000A1215220A166908F0000130F10065
:102390000A1289270A162030F2000A1215220A169C
:1023A0006B08F0000130F1000A1289270A162F305D
:1023B000F2000A1215220A166C08F0000130F10032
:1023C0000A1289270A162F30F2000A1215220A165D
:1023D0006D08F0000130F1000A1289270A166A0818
:1023E000D9006908DA006B08DB006C08DC006D08B6
:1023F000DD001730DE003B30DF001F30E0000C3026
:10240000E1000F30E2000230E3000530E400083064
:10241000E5000B30E6000E30E7005808043C031CD2
:10242000712A63305807840001300002F000F10087
:102430000230F2000A121B220A167E30F2000A1243
:1024400015220A16B71537088316870083128719D5
:102450005F2A593058078400800A59305807840091
:102460000008EF005E305807840000086F0203196F
:10247000402A031C402A593058078400013080004C
:102480006330580784000008EF00F1000230F200CA
:102490000A121B220A165930580784000008EF0060
:1024A000F0000130F1000A1289270A160230EF000D
:1024B000FA30F0000A1275200A16EF0B582A371569
:1024C00037088316870083120719702AD80A02304A
:1024D000EF00FA30F0000A1275200A16EF0B692A95
:1024E0000D2A5C08EC005B08EB005D08ED00590864
:1024F000EA005A08E900E8010330EE006830EF0016
:102500006F0884000008FC00FD007D217808F000C1
:1025100001306F0784000008FC00FD007D21780871
:10252000F10002306F0784000008FC00FD007D21EF
:102530007808F20003306F0784000008FC00FD00FB
:102540007D2105306F078400000EF700F70DF70DB1
:10255000C030F70577087804F30004306F07840073
:102560000008FC00FD007D2106306F078400000E8E
:10257000F700F70DE030F70577087804F400FD0167
:102580008030FE000A125B270A160B138B138B1B7D
:10259000C62A83160814000088140000831208104D
:1025A0008316081000008312881083168810A2304A
:1025B000A0000A12831216240A1601308316A00006
:1025C0000A12831216240A168316A0010A12831215
:1025D00016240A1670088316A0000A128312162405
:1025E0000A1671088316A0000A12831216240A160E
:1025F00072088316A0000A12831216240A167308A2
:102600008316A0000A12831216240A167408831671
:10261000A0000A12831216240A168316081000005E
:10262000881483128818162B8316112B00000000C3
:1026300000000000831608140000053083126F07A5
:1026400084000008FC001030FD007C08FE000A1227
:102650005B270A16FD01FE010A125B270A160A1201
:10266000D8200A168A150A16892D0A12D8200A16A9
:102670000130D7000A12A6220A167708D700780878
:10268000D8007908D9007A08DA0003178E010730DC
:102690008D0083168C130C1483120C080313DB00BB
:1026A00003178E0108308D0083168C130C148312CF
:1026B0000C080313DC0003178E0105308D00831610
:1026C0008C130C1483120C080313DD002B30F20062
:1026D0000A1215220A165A08E1005908E0005808A3
:1026E000DF005708DE00E501E4010130E300E2000D
:1026F0000A128A156C230A168A112030F2000A1277
:1027000015220A165B08F0000130F1000A12892731
:102710000A162F30F2000A1215220A165C08F00081
:102720000130F1000A1289270A162030F2000A123D
:1027300015220A165D08F0000130F1000A128927FF
:102740000A166830F2000A1215220A160130F1004A
:102750000230F2000A121B220A160930D7000A12B0
:10276000A6220A167708D7007808D8007908D90079
:102770007A08DA0003178E010F308D0083168C1350
:102780000C1483120C080313DB0003178E011030A6
:102790008D0083168C130C1483120C080313DC00B9
:1027A00003178E010D308D0083168C130C148312C9
:1027B0000C080313DD002D30F2000A1215220A1650
:1027C0005A08E1005908E0005808DF005708DE0009
:1027D000E501E4010130E300E2000A128A156C23EE
:1027E0000A168A112030F2000A1215220A165B0816
:1027F000F0000130F1000A1289270A162F30F2008A
:102800000A1215220A165C08F0000130F1000A12C3
:1028100089270A162030F2000A1215220A165D08CE
:10282000F0000130F1000A1289270A166830F20020
:102830000A1215220A161430D700FA30F0000A12D4
:1028400075200A16D70B1D2C0A12D8200A168A15D5
:042850000A16932DA4
:1030000084011F30830583161F149F141F159F1101
:103010001930990026309800903083129800A00152
:10302000A101FF30B7003814B8143815B8113812A0
:10303000BC01BD0100308316860088008312B710E2
:10304000370883168700831287100A128A11E02836
:103050000A168A150A128A1123290A168A150A12D3
:103060008A11D8200A168A150A128A1186290A1688
:103070008A15D7010A128A11D2290A168A157818D8
:1030800043283410442834140A128A11D8200A160E
:103090008A15371537088316870083120719E72822
:1030A000D70157080A128A1131200A168A15D70A41
:1030B000F700F2000A128A1115220A168A150E303C
:1030C0005702031D51280130F1000230F2000A12AC
:1030D0008A111B220A168A15D70157080A128A116B
:1030E00044200A168A15D70AF700F2000A128A113C
:1030F00015220A168A150B305702031D6D280C3055
:10310000D700FA30F0000A128A1175200A168A15C3
:10311000D70B8128371537088316870083120719C4
:103120009828B7153708831687008312871DE7286C
:10313000371537088316870083120719E02803170D
:103140008E0101308D00FF308C0083168C130C151E
:10315000831203130B08F7008B13831603175530E4
:103160008D00AA308D008C148C18B4280C117708AF
:10317000831203138B04B8140A128A11D8200A167A
:103180008A15D70157080A128A1154200A168A157F
:10319000D70AF700F2000A128A1115220A168A15B8
:1031A0000E305702031DC2280830D700FA30F00055
:1031B0000A128A1175200A168A15D70BD628E62816
:1031C0000A128A11D8200A168A15E7288A2803309D
:1031D000D7002030F2000A128A1115220A168A1529
:1031E000D70BE928D80158080A128A1167200A1655
:1031F0008A15D80AF700F2000A128A1115220A1657
:103200008A1509305802031DF3280830D700FA3018
:10321000F0000A128A1175200A168A15D70B0729A1
:103220000A128A11D8200A168A15D8011130D7003F
:103230000A128A112D2A0A168A157908A10078081F
:10324000A000200F3029210F3029A101A001113049
:10325000E500E701E6010A128A115A220A168A15C8
:1032600003178E0101308D0083168C130C1483120A
:103270000C08FF3C03195E2901300313D7000A1222
:103280008A11A6220A168A157A08C7007908C6008C
:103290007808C5007708C4000930D7000A128A11DF
:1032A000A6220A168A157A08CB007908CA0078087F
:1032B000C9007708C800B810602903170313B814B1
:1032C000C301C201C101C001CF01CE01CD01CC01BA
:1032D00038186C2986136D298617831686130130DA
:1032E0008312B8063410B90A8C1E86292230840055
:1032F0008403840A8C1E7A291A0880000D3000028B
:10330000031D792980010A1200280A165030EF00A7
:103310000A1259220A160130F100F2000A128A112B
:103320001B220A168A155308F0000130F1000A1218
:103330008A1189270A168A152F30F2000A128A117B
:1033400015220A168A155408F0000130F1000A12FD
:103350008A1189270A168A150130F1000230F2001D
:103360000A128A111B220A168A155208F00001302F
:10337000F1000A128A1189270A168A153A30F200DA
:103380000A128A1115220A168A155108F000013016
:10339000F1000A128A1189270A168A150C30F100E9
:1033A0000130F2000A128A111B220A168A154308FC
:1033B000E1004208E0004108DF004008DE00E501CE
:1033C000E4010130E300E2000A126C230A164330E4
:1033D000F2000A128A1115220A168A150C30F10021
:1033E0000230F2000A128A111B220A168A154F08AF
:1033F000E1004E08E0004D08DF004C08DE00E5016A
:10340000E4010130E300E2000A126C230A162530C1
:10341000F2000A128A1115220A168A153908F200DA
:103420000530F3000A128A1172230A168A157708EA
:10343000031D072D0A12642F0A167A08C3007908A3
:10344000C2007808C1007708C0008A1100288A15D8
:103450007908EE007808ED000A128A11BB270A16D7
:103460008A157A08CF007908CE007808CD00770851
:10347000CC00B81C562B4308C7004208C6004108C0
:10348000C5004008C4004308CB004208CA004108F8
:10349000C9004008C8000130D7004708DB004608D3
:1034A000DA004508D9004408D8000A12CF270A16C6
:1034B00003178E0105308D000313520803178C008B
:1034C00083168C130C15831203130B08F7008B1350
:1034D0008316031755308D00AA308D008C148C187C
:1034E0006F2A0C117708831203138B0403178E01C4
:1034F00006308D000313510803178C0083168C13BC
:103500000C15831203130B08F7008B138316031794
:1035100055308D00AA308D008C148C188D2A0C111A
:103520007708831203138B0403178E0107308D0075
:103530000313530803178C0083168C130C15831286
:1035400003130B08F7008B138316031755308D00F8
:10355000AA308D008C148C18AB2A0C1177088312BA
:1035600003138B0403178E0108308D0003135408D6
:1035700003178C0083168C130C15831203130B088E
:10358000F7008B138316031755308D00AA308D007A
:103590008C148C18C92A0C117708831203138B041E
:1035A0000930D7004B08DB004A08DA004908D90087
:1035B0004808D8000A12CF270A1603178E010D30CB
:1035C0008D000313520803178C0083168C130C15FF
:1035D000831203130B08F7008B1383160317553060
:1035E0008D00AA308D008C148C18F42A0C117708E9
:1035F000831203138B0403178E010E308D00031307
:10360000510803178C0083168C130C1583120313B7
:103610000B08F7008B138316031755308D00AA3063
:103620008D008C148C18122B0C1177088312031345
:103630008B0403178E010F308D00031353080317FB
:103640008C0083168C130C15831203130B08F700E0
:103650008B138316031755308D00AA308D008C1400
:103660008C18302B0C117708831203138B0403176B
:103670008E0110308D000313540803178C0083163D
:103680008C130C15831203130B08F7008B1383168E
:10369000031755308D00AA308D008C148C184E2BDA
:1036A0000C117708831203138B04B8104708DA0053
:1036B0004608D9004508D8004408D7004308DE0072
:1036C0004208DD004108DC004008DB008A11EF20E1
:1036D0008A15031CF02B0130D7004308DB00420899
:1036E000DA004108D9004008D8000A12CF270A168C
:1036F00003178E0105308D000313520803178C0049
:1037000083168C130C15831203130B08F7008B130D
:103710008316031755308D00AA308D008C148C1839
:103720008F2B0C117708831203138B0403178E0160
:1037300006308D000313510803178C0083168C1379
:103740000C15831203130B08F7008B138316031752
:1037500055308D00AA308D008C148C18AD2B0C11B7
:103760007708831203138B0403178E0107308D0033
:103770000313530803178C0083168C130C15831244
:1037800003130B08F7008B138316031755308D00B6
:10379000AA308D008C148C18CB2B0C117708831257
:1037A00003138B0403178E0108308D000313540894
:1037B00003178C0083168C130C15831203130B084C
:1037C000F7008B138316031755308D00AA308D0038
:1037D0008C148C18E92B0C117708831203138B04BB
:1037E0004308DA004208D9004108D8004008D70051
:1037F0004B08DE004A08DD004908DC004808DB0011
:103800008A11EF208A15031C8A2C0930D70043083F
:10381000DB004208DA004108D9004008D8000A124B
:10382000CF270A1603178E010D308D00031352089F
:1038300003178C0083168C130C15831203130B08CB
:10384000F7008B138316031755308D00AA308D00B7
:103850008C148C18292C0C117708831203138B04F9
:1038600003178E010E308D000313510803178C00CF
:1038700083168C130C15831203130B08F7008B139C
:103880008316031755308D00AA308D008C148C18C8
:10389000472C0C117708831203138B0403178E0136
:1038A0000F308D000313530803178C0083168C13FD
:1038B0000C15831203130B08F7008B1383160317E1
:1038C00055308D00AA308D008C148C18652C0C118D
:1038D0007708831203138B0403178E0110308D00B9
:1038E0000313540803178C0083168C130C158312D2
:1038F00003130B08F7008B138316031755308D0045
:10390000AA308D008C148C18832C0C11770883122C
:1039100003138B0421081F3C031C072D031D942C4B
:103920002008FE3C031C072D52080339003A031DF2
:10393000052D381D042DE5012108E7002008E600CB
:103940005308E8000A128A114F240A168A15A00AA1
:103950000319A10AE5012108E7002008E600540840
:10396000E8000A128A114F240A168A15A00A0319C0
:10397000A10AE5012108E7002008E6005208E80056
:103980000A128A114F240A168A15A00A0319A10ADD
:103990004F08E0004E08DF004D08DE004C08DD0057
:1039A0000A128A11D9270A168A157808D700E50164
:1039B0002108E7002008E6005708E8000A128A11EB
:1039C0004F240A168A15A00A0319A10AD701210853
:1039D000D9002008D8003F08DB003E08DA008A1131
:1039E0002E298A15A00A0319A10AA00A0319A10AFF
:1039F0001130E5002108E7002008E6000A128A11CC
:103A00005A220A168A153811062D3815072DBA01C3
:103A10003A080A3C031C5E2D3A08D7000330D80050
:103A20008A1158218A157808143ED70003178E0191
:103A30000313570803178D0083168C130C1483127D
:103A40000C0803135202031D5C2D3A08D700033003
:103A5000D8008A1158218A157808153ED700031717
:103A60008E010313570803178D0083168C130C1453
:103A700083120C0803135102031D5C2D3A08D70072
:103A80000330D8008A1158218A157808163ED700CD
:103A900003178E010313570803178D0083168C1329
:103AA0000C1483120C08031350020319592D031828
:103AB0005B2DB8155C2DB811BA0A082DF701381A1C
:103AC000F7153808770608390319802DB81D6F2DB2
:103AD000B710370883168700831287147D2DB7101F
:103AE0003708831687008312871083168612831285
:103AF000861283160612831206123812B819381667
:103B00003715370883168700831207198A2D8A1103
:103B10008E298A15B71537088316870083128719EF
:103B2000942D8A11352B8A150430D700C830F00047
:103B30000A128A1175200A168A15D70B962D682944
:023B4000630020
:02400E00F13F80
:00000001FF
;PIC16F877
